:100000000C9434000C943E000C943E000C943E0082
:100010000C943E000C943E000C943E000C943E0068
:100020000C943E000C943E000C943E000C943E0058
:100030000C943E000C943E000C943E000C943E0048
:100040000C943E000C943E000C943E000C943E0038
:100050000C943E000C943E000C943E000C943E0028
:100060000C943E000C943E0011241FBECFEFD4E050
:10007000DEBFCDBF0E9467000C94E7000C94000027
:10008000282F8630A0F48BB1806C8BB935B181E01C
:1000900090E002C0880F991F2A95E2F78095282FDB
:1000A0002F73232B25B925B1822385B90895863076
:1000B00031F485B18F6385B95E9A5F980895873072
:1000C00029F485B18F6385B95F9A5E980895DF92B0
:1000D000EF92FF920F931F935298539A55985D9AFF
:1000E00054985C9A84B18F6384B98AB1806C8AB960
:1000F00085B18F6385B98BB1806C8BB987B1837CF7
:1001000087B988B18C6388B93898409880E8809323
:100110007A0080E280937C0080917A0087608093EF
:100120007A0080917A00806480937A00EE24FF2424
:10013000DD2407E090E004C0EE24FF24F394912F27
:1001400080917A0084FFFCCF80917A008061809357
:100150007A001091790080917A00806480937A000F
:10016000129516951770911721F0812F0E9440006B
:10017000012F86B1319902C0DD2408C0DD2021F4B1
:10018000812F0E944000012FDD24D3944A9B11C08F
:10019000EE2069F45B980F5F083008F000E0802FD4
:1001A0000E944000349900C086B1EE24E394FF24FD
:1001B000C6CFFF2011F0EE24C2CF5B9A4C9BBCCF80
:1001C00085B18F6385B98BB1806C8BB9B5CFF8944D
:0201D000FFCF5F
:00000001FF
